:020000040800F2
:10000000700900202D020008B1600008C726000812
:10001000AD60000815080008156600080000000023
:10002000000000000000000000000000DD6000088B
:10003000B108000800000000B36000083561000846
:10004000470200084702000847020008470200086C
:10005000470200084702000847020008470200085C
:10006000470200084702000847020008470200084C
:10007000470200084702000847020008470200083C
:10008000470200084702000847020008470200082C
:10009000470200084702000847020008470200081C
:1000A000470200084702000847020008470200080C
:1000B000470200084702000895610008470200084F
:1000C00047020008470200084702000847020008EC
:1000D00047020008D56500084702000847020008EB
:1000E00047020008470200084702000847020008CC
:1000F00047020008470200084702000847020008BC
:1001000047020008470200084702000847020008AB
:10011000470200084702000847020008470200089B
:10012000470200084702000847020008470200088B
:1001300000F002F800F06BF80AA090E8000C82448E
:100140008344AAF10107DA4501D100F060F8AFF26B
:10015000090EBAE80F0013F0010F18BFFB1A43F0A5
:1001600001031847F0AB000010AC00000A444FF048
:10017000000C10F8013B13F0070408BF10F8014B06
:100180001D1108BF10F8015B641E05D010F8016B4B
:10019000641E01F8016BF9D113F0080F1EBF10F8AF
:1001A000014BAD1C0C1B09D16D1E58BF01F801CBD2
:1001B000FAD505E014F8016B01F8016B6D1EF9D555
:1001C0009142D6D37047000000230024002500266A
:1001D000103A28BF78C1FBD8520728BF30C148BFAA
:1001E0000B607047642900F09F80752900F09C80A7
:1001F000782900F0D580632900F03482732900F05B
:100200003982002070471FB51FBD10B510BD00F02A
:100210006BFA1146FFF7F7FF06F0A0FD00F089FA30
:1002200003B4FFF7F2FF03BC06F04DFD0948804719
:1002300009480047FEE7FEE7FEE7FEE7FEE7FEE7C8
:10024000FEE7FEE7FEE7FEE704480549054A064BE0
:10025000704700003D610008310100087003002074
:100260007009002070050020700500207047000014
:100270000FB4044910B503AA029800F0FFF910BCAE
:100280005DF814FB3800002070B5044685690068ED
:10029000C10601D5302600E02026C00707D070BD7A
:1002A000D4E9012130469047206A401C20626D1E2F
:1002B000F6D570BD70B5044685690078C00707D1D2
:1002C00070BDD4E9012120209047206A401C2062A3
:1002D0006D1EF6D570BD70B50C460546012A05D0D9
:1002E0002878800600D5EA69002302E0012305E0B2
:1002F0005B1C934202D2E05C0028F9D1A869E618A1
:10030000C01AA861286A184428622846FFF7BCFF73
:1003100004E0D5E9012114F8010B9047B442F8D369
:100320002846FFF7C7FF70BD2DE9F04106460024BF
:1003300010687529314616A510D0AFF3008000284B
:1003400002DA404213A507E031688A0701D512A5F9
:1003500002E0490704D511A5012401E0AFF30080B4
:1003600000210A2206F1240709E0B0FBF2FCB0FBF1
:10037000F2F302FB1C00303078541846491C002868
:10038000F3D123462A463046BDE8F04100F007B9D4
:10039000000000002D0000002B00000020000000E5
:1003A00070B504460D4621461068AFF300802188E1
:1003B000090502D50F4A7A4402E00E4A7A440E3209
:1003C000002104F1240305E000F00F060009965D0A
:1003D0005E54491C0028F7D120780023000704D57B
:1003E000702D02D009B1022311322046BDE87040C1
:1003F00000F0D5B8ACA700002DE9F05F89460446AF
:100400004FF0000ADFF874B1FB44C0F820A020468A
:10041000E1688847002874D0252806D0D4E9012156
:100420009047206A401C2062F1E700265F46204684
:10043000E16888472028054607DB312D05D2781969
:1004400010F8200C08B10643F1E7B00701D526F0FB
:100450000406C4F81CA00027C4F818A02A2D09D04F
:10046000284606F029FC38B304EB8708303DC8F86D
:10047000185019E059F8041B204604EB87029161DB
:10048000E1688847012F054618D1E069002820DA85
:1004900026F020061DE0D8F8180000EB800005EBE0
:1004A00040003038C8F818002046E1688847054603
:1004B00006F002FC0028EED1012F0AD02E2D08D123
:1004C0002046E16888477F1C0546022F46F020063B
:1004D000C4DBA069002803DA404246F00106A061AF
:1004E000F00701D026F010066C2D0BD0682D09D036
:1004F0004C2D39D06A2D35D0742D35D07A2D33D08E
:1005000016E038E0E1682F4620468847B8420546A5
:1005100009D16C2F26D04FF48060E1680643204655
:100520008847054604E06C2F1AD04FF480700643CC
:100530000DB3A5F14100192802D8203546F4006614
:100540004A462946204626604E46FFF74BFE80B1BC
:1005500001280BD0F61D26F0070000F1080956E728
:100560004020E4E78020D8E70020D6E706F1040920
:100570004DE7284652E7206ABDE8F09F82A70000B9
:10058000704770477047704710B500F089F80068F1
:1005900010BD10B5044600F083F8046010BD2DE9CD
:1005A000F0470D4699469246044600F1240801683A
:1005B000880604D5E06921F01001216000E00120E7
:1005C000A84201DD471B00E00027A1697A1902EB70
:1005D0000900081AA0612078C00602D42046FFF75F
:1005E00053FE002608E0D4E901211AF806009047DE
:1005F000206A401C761C20624E45F4DB2078C00641
:100600000AD52046FFF740FE06E0D4E9012130205C
:100610009047206A401C2062381EA7F10107F4DCD5
:1006200007E0D4E9012118F805009047206A401C32
:100630002062281EA5F10105F3DC2046FFF73AFEF3
:100640002078000602D50220BDE8F0870120FBE7F4
:1006500010B5436913B1AFF3008001E0FFF73BFE33
:10066000012010BD127800F124010A7000224A70A6
:100670000122EDE711684FF0FF32E9E7074B70B553
:100680000D467B4400F015F80446284600F024F897
:1006900010B14FF0FF3070BD204670BDBB6600004A
:1006A000004870471003002001694A1C0261087865
:1006B000704700B58FB0CDE90131002105910549A2
:1006C0007944CDE9031011466846FFF795FE0FB057
:1006D00000BD0000E5FFFFFF007B00F080007047D9
:1006E00000487047100300207546FFF7F9FFAE463B
:1006F00005006946534620F00700854618B020B52E
:10070000FFF7A2FDBDE820404FF000064FF00007C4
:100710004FF000084FF0000B21F00701AC46ACE8A9
:10072000C009ACE8C009ACE8C009ACE8C0098D4616
:1007300070470446AFF300802046FFF771FD70B5A7
:10074000044600252068806800F00100F0B12068B0
:10075000806820F001002168886001F051F80546AA
:100760000EE001F04DF8401B022809D9A06A40F0C4
:100770001000A062E06A40F00100E062012070BD5C
:100780002068806800F001000028EAD10020F6E728
:1007900038B504460025002000902068806800F0ED
:1007A000010080BB2068806840F0010021688860FB
:1007B000164800681649B0FBF1F0009002E000987E
:1007C000401E009000980028F9D101F019F8054664
:1007D00013E001F015F8401B02280ED9A06A40F082
:1007E0001000A062E06A40F00100E06200BF00205B
:1007F00084F8240000BF012038BD2068806800F024
:1008000001000028E5D00020F6E7000024000020C9
:1008100040420F0000BFFEE71CB50A480A490860C5
:10082000084600F0DFFC002000900220019000222A
:100830006946054800F09CFC0021034800F02AFDB1
:100840001CBD000000740040BC0200202DE9F047F0
:1008500004460D4626462F460022114B30463946A7
:1008600007F008FE06460F4600220E4B304639467A
:1008700008F01CF880464FF066320B4B07F0FAFD8B
:1008800006460F463046394607F07CFF8046434611
:1008900000221146054800F0E7FCBDE8F0870000A3
:1008A00000408F400000B04066660A40BC02002055
:1008B000704700001CB5B423E62219461E2001F043
:1008C000C3FF1E231A46B421184601F0BDFF1E23A4
:1008D0001A4622211C2001F0B7FF1E231A462221AE
:1008E000202001F0B1FFB423E622B221E22001F082
:1008F000ABFFB423E622B621E22001F0A5FF0FA052
:1009000010210B46C822CDE90010B6211E2005F0AB
:1009100091FA0BA010210B46C822CDE90010B62198
:10092000E22005F087FA08A010210B46C822CDE985
:100930000010BE216E2005F07DFA1CBD305600006F
:10094000332E33560000000041444320566F6C7430
:1009500061676520285629002DE9F14F82B04FF0DC
:10096000000AD346029808F0CBF94FF066322C4BC0
:10097000CDE9000107F07EFD06460022294B07F075
:1009800095FF04460022284B07F0B8FC804607F08C
:10099000F9FE1FFA80FA504608F022FB80462349F0
:1009A00008F008FC0746224908F038FA06462149B3
:1009B00008F02AFB0546204908F0F2FB044608F03F
:1009C000EFFA1FFA80FBBAF11E0F02DA4FF01E0A8F
:1009D00004E0BAF1E60F01DD4FF0E60ABBF11E0FAD
:1009E00002DA4FF01E0B04E0BBF1B40F01DD4FF053
:1009F000B40B1248008850B11148008838B15B46EA
:100A000052460F4801880D48008801F01DFF0B4831
:100A1000A0F800A00A48A0F800B0BDE8FE8F0000D2
:100A200066660A400000694000003E400000F04158
:100A3000000048430000164300003443200000201B
:100A4000220000203EB504460094012001900720BA
:100A500002906946074800F0A9F8064800F0F0FA4D
:100A60000A21044800F034FA024800F04FF980B23D
:100A70003EBD00008C0200202DE9F04107460C46E7
:100A80000025002608E03846FFF7DCFF0544052076
:100A900006F026F9701CC6B2A642F4DBB5FBF4F0F2
:100AA00080B2BDE8F0810000F8B5044600260020C1
:100AB000009000BF94F82400012801D10220F8BD65
:100AC000012084F8240000BF2046FFF738FE0646C8
:100AD000002E62D1A06A20F4885040F00200A0628B
:100AE000022000F03DFF30490968B1FBF0F0400002
:100AF000009002E00098401E009000980028F9D174
:100B00002046FFF745FE2068806840F00800216815
:100B1000886000F075FE054611E000F071FE401B94
:100B20000A280CD9A06A20F0020040F01000A06250
:100B300000BF002084F8240000BF0120BFE7206828
:100B4000806800F008000028E7D12068806840F045
:100B500004002168886000F053FE054611E000F0B3
:100B60004FFE401B0A280CD9A06A20F0020040F07A
:100B70001000A06200BF002084F8240000BF012004
:100B80009DE72068806800F004000028E7D1A06A93
:100B900020F0020040F00100A06200BF002084F8B5
:100BA000240000BF30468AE72400002038B5024602
:100BB00000230020009000BF92F82400012801D1FA
:100BC000022038BD012082F8240000BF48680728B1
:100BD00012D21068406B0C79641E04EB84051F244C
:100BE000AC40A0430D796D1E05EB85050C68AC404B
:100BF00020431468606327E048680D2812D210680B
:100C0000006B0C79E41F04EB84051F24AC40A04367
:100C10000D79ED1F05EB85050C68AC402043146889
:100C2000206311E01068C06A0C790D3C04EB840568
:100C30001F24AC40A0430D790D3D05EB85050C68E4
:100C4000AC4020431468E06208680A2812D3106898
:100C5000C0680C780A3C04EB44050724AC40A04370
:100C60000D780A3D05EB45058C68AC4020431468BF
:100C7000E0600FE0106800690C7804EB440507247D
:100C8000AC40A0430D7805EB45058C68AC40204393
:100C9000146820610868102802D00868112827D13C
:100CA000174C1068A0421ED11068806800F4000044
:100CB000F0B91068806840F400001468A06008680B
:100CC000102815D10F4800680F4CB0FBF4F000EB72
:100CD00080004000009002E00098401E00900098C4
:100CE0000028F9D104E0906A40F0200090620123CE
:100CF00000BF002082F8240000BF184661E7000012
:100D0000002401402400002040420F0001460868F2
:100D1000C06C70472DE9F0410446002700250026ED
:100D2000A84614B90120BDE8F081A06810B1207D6B
:100D300000B100BFA06A30B90020E06284F824004E
:100D4000204600F097F82046FFF7F9FC0746A06A16
:100D500000F01000002873D1002F7ED1A06A20F48B
:100D6000885040F00200A0623F4AD4E9000190425E
:100D700008D1E069B0F5402F02D14FF4002002E025
:100D8000E06900E0E0690143207B41EA400006435E
:100D9000A068B0F5807F02D0A068012802D14FF48E
:100DA000807000E000200543207D012811D1207BC8
:100DB00038B9A069401E4FF4006141EA4030054354
:100DC00007E0A06A40F02000A062E06A40F0010065
:100DD000E0622068406820F4694028432168486048
:100DE0002068806821490840304321688860A068F5
:100DF000B0F5807F02D0A068012802D14FF4807046
:100E000000E00020B0F5807F03D1208A401E4FEA29
:100E100000582068C06A20F4700040EA0800216889
:100E2000C8622068806812490840B04209D1002099
:100E3000E062A06A20F0020040F00100A06211E030
:100E40000BE0A06A20F0020040F01000A062E06A0F
:100E500040F00100E062012704E0A06A40F01000C9
:100E6000A062012738465EE7003C0140FDF7E1FF44
:100E7000FE0E1FFF10B586B0044600BF1248806901
:100E800040F40070104988610846806900F40070E1
:100E9000019000BF00BF00BF0846806940F0040019
:100EA00088610846806900F00400019000BF00BF1F
:100EB00002200290032003900020049002A903481E
:100EC00000F0F8FA06B010BD001002400008014022
:100ED000F8B504460D46002600200090002700F0DB
:100EE0008FFC06462068806800F4807050B1A06ACC
:100EF00040F02000A06200BF002084F8240000BF62
:100F00000120F8BD2068406800F48070F8B92068BE
:100F1000C06A00F47000D0B912E0681C80B125B13D
:100F200000F06EFC801BA8420AD9A06A40F00400C1
:100F3000A06200BF002084F8240000BF0320E0E787
:100F40002068006800F002000028E6D050E002208F
:100F500000F006FD36490968B1FBF0F02168096927
:100F6000344A114091B92168C9689211114069B998
:100F700021680969304A114031B92168C968921164
:100F8000114009B9142117E0292115E021680969E8
:100F9000294A114021B92168C9689211114041B113
:100FA00021680969254A114029B92168C968114099
:100FB00009B9542100E0FC2100FB01F715E0681C91
:100FC00080B125B100F01CFC801BA8420AD9A06AA0
:100FD00040F00400A06200BF002084F8240000BF9D
:100FE00003208EE70098401C00900098B842E6D39A
:100FF0006FF0120021680860A06A40F40070A062DF
:101000002068806800F46020B0F5602F0DD1207B4F
:1010100058B9A06A20F48070A062A06A00F48050E1
:1010200018B9A06A40F00100A062002069E7000042
:101030002400002024499224922449124992240039
:1010400070B50446002500BF94F82400012801D1A2
:10105000022070BD012084F8240000BF2046FFF765
:1010600097FB0546002D77D1A06A40F20121884305
:1010700040F48070A0623C492068884208D13B4817
:10108000006800F4702008B9012002E0002000E0B0
:10109000012078B1A06A20F48010A0622068406826
:1010A00000F4806000B3A06A20F4005040F4805047
:1010B000A06219E0A06A40F48010A0622B49091FC9
:1010C0002068884203D028492068884204D12748F4
:1010D000006800F4806000E0002028B1A06A20F4DD
:1010E000005040F48050A062A06A00F4805020B10B
:1010F000E06A20F00600E06201E00020E06200BF4C
:10110000002084F8240000BFC01E21680860206809
:10111000806800F46020B0F5602F16D11249206875
:10112000884208D11148006800F4702008B90120F5
:1011300002E0002000E0012038B12068806840F41F
:10114000A000216888600CE006E02068806840F418
:1011500080102168886004E000BF002084F824002B
:1011600000BF284675E70000002801400424014024
:10117000F0B5034600BF5879012801D10220F0BD27
:101180000120587100BF022018711868046802F02D
:10119000100640F6FE70B0408443D1E9000640EAF4
:1011A000060502F0100005FA00F004431868046018
:1011B0001868006802F01007C026BE40B0431E68E1
:1011C00030601868006802F01007C026BE40B043C7
:1011D0001E6830600120187100BF0020587100BFE8
:1011E00000BFCCE710B504460CB9012010BD207932
:1011F00020B900206071204600F008F8022020711C
:1012000000202061012020710020EFE710B586B09A
:10121000044600BF1248C06940F000501049C86140
:101220000846C06900F00050019000BF00BF00BF39
:101230000846806940F0040088610846806900F033
:101240000400019000BF00BF102002900320039013
:101250000020049002A9034800F02CF906B010BD4C
:10126000001002400008014038B5044600200090FC
:101270002068009029B902F10800009D28440090E0
:1012800004E002F11400009D2844009000980360DF
:10129000002038BD10B5024600BF5079012801D1A9
:1012A000022010BD0120507100BF02201071106893
:1012B000006801F010040123A3401843136818606C
:1012C00061B91068006800F03C003C2816D1106835
:1012D000406840F00100136858600FE01068006833
:1012E00000F4701301F010043C20A040834205D1AB
:1012F0001068406840F002001368586001201071C7
:1013000000BF0020507100BF00BFCAE770B504469F
:10131000002594F82100022803D00420A0630125B1
:10132000C1E02068006820F00E0021680860206895
:10133000006820F00100216808605C49206888424C
:1013400052D95A4978392068884201D1012047E0B2
:10135000564964392068884201D1102040E0534941
:1013600050392068884201D1801539E04F493C3915
:101370002068884201D1801432E04C492839206825
:10138000884202D14FF480302AE04849143920685D
:10139000884202D14FF4801022E0444920688842FC
:1013A00001D140041CE042492068884201D101205B
:1013B00016E03F4914312068884201D110200FE027
:1013C0003B4928312068884201D1801508E038491E
:1013D0003C312068884201D1801401E04FF4803014
:1013E0003349091F086051E0304978392068884244
:1013F00001D1012047E02D4964392068884201D19C
:10140000102040E0294950392068884201D18015D8
:1014100039E026493C392068884201D1801432E005
:10142000224928392068884202D14FF480302AE0CE
:101430001E4914392068884202D14FF4801022E0FE
:101440001A492068884201D140041CE018492068EC
:10145000884201D1012016E01549143120688842E4
:1014600001D110200FE0124928312068884201D1B3
:10147000801508E00E493C312068884201D1801473
:1014800001E04FF48030094980394860012084F838
:10149000210000BF002084F8200000BF606B10B165
:1014A0002046616B8847284670BD000080000240DE
:1014B000080402402DE9F847024600239C467BE1E0
:1014C0004FF0010808FA03F4D1F8008008EA04009C
:1014D000A0427DD1DFF8F4A2D1F80480A8EB0A097C
:1014E000D0453AD014DCB8F1030F50D009DCB8F184
:1014F000000F31D0B8F1010F1CD0B8F1020F49D163
:1015000020E0B8F1110F18D0B8F1120F42D11EE04F
:10151000B9F5881F25D006DCB9F5803F20D0B9F594
:10152000801F37D11AE0B9F5001F18D0B9F5041F94
:1015300030D117E0D1F80CC02DE0D1F80C8008F1C3
:10154000040C28E0D1F80C8008F1080C23E0D1F855
:101550000C8008F10C0C1EE000BF00BF00BF00BFF4
:1015600000BF00BFD1F80880B8F1000F02D14FF0E2
:10157000040C0BE0D1F80880B8F1010F03D14FF053
:10158000080C146102E04FF0080C546103E04FF0C6
:10159000000C00E000BF00BFFF2801D8904601E02A
:1015A00002F104084646FF2802D84FEA830803E008
:1015B000A3F108084FEA88084746D6F800804FF0A4
:1015C0000F0909FA07F928EA09080CFA07F900E0F7
:1015D0007AE048EA0908C6F80080D1F8048008F0EB
:1015E0008058B8F1805F6FD100BFDFF8E481D8F890
:1015F000188048F00108DFF8D891C9F81880C8466B
:10160000D8F8188008F00108CDF8008000BF00BFAE
:101610004FEAB9384FEA930958F829504FEA8378CE
:101620004FEA18794FF00F0808FA09F825EA08057B
:10163000DFF8A081424502D14FF0000824E0DFF836
:101640009881424502D14FF001081DE0DFF88C81FE
:10165000424502D14FF0020816E0DFF8848142458E
:1016600002D14FF003080FE0DFF87881424502D144
:101670004FF0040808E0DFF87081424502D14FF0D6
:10168000050801E04FF006084FEA83794FEA19791F
:1016900008FA09F848EA0505DFF850814FEA93098E
:1016A00048F82950D1F8048008F48038B8F5803F14
:1016B0000BD1DFF83C81D8F8008048EA0008DFF859
:1016C0003091C9F800800AE075E0DFF82481D8F88D
:1016D000008028EA0008DFF81891C9F80080D1F8E6
:1016E000048008F40038B8F5003F0ED1DFF800811F
:1016F00008F10408D8F8008048EA0008DFF8F09004
:1017000009F10409C9F800800DE0DFF8E48008F170
:101710000408D8F8008028EA0008DFF8D49009F11E
:101720000409C9F80080D1F8048008F48018B8F5DD
:10173000801F0ED1DFF8B88008F10808D8F80080C3
:1017400048EA0008DFF8A89009F10809C9F8008004
:101750000DE0DFF89C8008F10808D8F8008028EA3E
:101760000008DFF88C9009F10809C9F80080D1F869
:10177000048008F40018B8F5001F0ED1DFF870805F
:1017800008F10C08D8F8008048EA0008DFF86090FB
:1017900009F10C09C9F800800DE0DFF8548008F168
:1017A0000C08D8F8008028EA0008DFF8449009F116
:1017B0000C09C9F800805B1CD1F8008028FA03F8F6
:1017C000B8F1000F7FF47CAEBDE8F887000011107F
:1017D0000010024000080140000C014000100140D0
:1017E0000014014000180140001C014008000140A5
:1017F000000401400AB1016101E00B04036170477C
:101800000148006870470000280000200348006875
:1018100003490978084401490860704728000020FE
:101820003000002010B50848006840F0100006495C
:101830000860052000F080F80F2000F007F800F0A5
:101840002BF8002010BD00000020024070B50446B7
:101850000E4800784FF47A71B1FBF0F00C4909683A
:10186000B1FBF0F5284600F027FD08B1012070BD5E
:10187000102C07D200222146501E00F01EF8054809
:10188000046001E00120F2E70020F0E730000020D2
:10189000240000202C000020704701460846002844
:1018A00009DB00F01F0301229A4043099B0003F16A
:1018B000E023C3F8002100BF70472DE9F05F8046A8
:1018C0000D461646002704F0BBFE074639462A4659
:1018D000334601F00700C0F1070ABAF1040F02D93C
:1018E0004FF0040A01E0C0F1070AD14600F1040AF2
:1018F000BAF1070F02D24FF0000A01E0A0F1030A8B
:10190000D4464FF0010A0AFA09FAAAF1010A0AEAD2
:10191000020A0AFA0CFA4FF0010B0BFA0CFBABF1BE
:10192000010B0BEA030B4AEA0B042146404604F084
:101930008FFEBDE8F09F000000BF00F00702064BDD
:1019400019684FF6FF031940044B0B4343EA022189
:10195000014B196000BF70470CED00E00000FA0574
:101960002DE9F04385B0064642A30FCB01AC0FC46E
:1019700044A0006800904FF00008002500270024D4
:10198000A146042E36D004DC012E3BD0022E6BD1B2
:101990005FE0082E32D0102E66D13B4844680068C4
:1019A00000F0807000B301A8C4F38341475C04F4E5
:1019B000803070B134484068C0F340401DF800806A
:1019C00004F4803040B13148B0FBF8F000FB07F57B
:1019D00002E02F4807FB00F52B48406800F4800028
:1019E000B0F5800F01D1A94603E068000321B0FBE8
:1019F000F1F93AE000F0D0F9814636E000F0CCF998
:101A0000814632E02048046A04F44070B0F5807FDB
:101A100005D104F0020010B14FF4004918E004F4BD
:101A20004070B0F5007F07D11748406A00F002000F
:101A300010B149F640490BE004F44070B0F5407F26
:101A400006D11148006800F4003008B14FF2244973
:101A50000BE000F091F90C494968C1F38131491C50
:101A60004900B0FBF1F900E000BF00BF484605B0F7
:101A7000BDE8F08302030405060708090A0B0C0DF4
:101A80000E0F1010010200000010024000127A0038
:101A900000093D00F8B504460027002600252078FF
:101AA00000F00100002869D04248C06900F0805071
:101AB00070B900BF3F48C06940F080503D49C861DF
:101AC0000846C06900F08050009000BF00BF0127A9
:101AD0003948006800F48070B0B93748006840F4B5
:101AE000807035490860FFF78BFE064606E0FFF779
:101AF00087FE801B642801D90320F8BD2E480068AA
:101B000000F480700028F2D02A48006A00F4407582
:101B10002DB3A08800F44070A84220D02548006A68
:101B200020F4407501202549086000200860214804
:101B3000056205F0010090B1FFF762FE064608E07D
:101B4000FFF75EFE801B41F28831884201D90320F5
:101B5000D3E71848006A00F002000028F0D01548CA
:101B6000006A20F440706168084312490862012F3E
:101B700004D10846C06920F08050C861207800F088
:101B80000200022807D10B48406820F44040A168B9
:101B9000084308494860207800F01000102807D159
:101BA0000448406820F480006169084301494860A6
:101BB0000020A2E7001002400070004040044242B2
:101BC00070B504460D460CB9012070BD5A48006836
:101BD00000F00700A8420ED25748006820F0070026
:101BE0002843554908600846006800F00700A842ED
:101BF00001D00120E9E7207800F0020002281DD181
:101C0000207800F00400042805D14C48406840F4D6
:101C1000E0604A494860207800F00800082805D1B3
:101C20004648406840F46050444948604348406832
:101C300020F0F000A168084340494860207800F097
:101C4000010078B36068012806D13C48006800F4C0
:101C5000003090B90120B8E76068022806D1374803
:101C6000006800F0007040B90120AEE7334800681A
:101C700000F0020008B90120A7E73048406820F0D2
:101C80000300616808432D494860FFF7B9FD064627
:101C900009E0FFF7B5FD801B41F28831884202D987
:101CA000032092E707E02548406800F00C006168D7
:101CB000B0EB810FEDD12048006800F00700A8428A
:101CC0000ED91D48006820F0070028431A49086013
:101CD0000846006800F00700A84201D0012074E720
:101CE000207800F00400042807D11448406820F44C
:101CF000E060E168084311494860207800F008007E
:101D0000082808D10D48406820F46050216940EA55
:101D1000C1000A49486000F03FF808494968C1F32A
:101D20000311074A515CC84006490860064800682C
:101D3000FFF78CFD002048E7002002400010024021
:101D40008E930008240000202C0000200148006829
:101D5000704700002400002000B5FFF7F7FF04499A
:101D60004968C1F30221034A515CC84000BD00002C
:101D7000001002409E93000800B5FFF7E7FF0449FA
:101D80004968C1F3C221034A515CC84000BD00004C
:101D9000001002409E930008F0B585B00FF26C0C65
:101DA0009CE8E01001A8A0E8E0101CA52D680095B3
:101DB00000210022002300240020194D696801F051
:101DC0000C05F5B1042D02D0082D19D101E01548FC
:101DD00019E001ADC1F38346AC5D01F4803555B126
:101DE0000F4D6D68C5F340451DF805200D4D654349
:101DF000B5FBF2F302E00C4D04FB05F3184602E0DC
:101E000000BF084800BF00BF05B0F0BD02030405D5
:101E1000060708090A0B0C0D0E0F10100102000036
:101E20000010024000127A0000093D00F8B5044697
:101E30000CB90120F8BD207800F00100002878D00E
:101E4000F848406800F00C0004280CD0F5484068C1
:101E500000F00C00082811D1F248406800F48030EE
:101E6000B0F5803F0AD1EF48006800F40030002848
:101E70005FD0606800285CD10120DBE700BF6068AC
:101E8000B0F5803F06D1E748006840F48030E5496E
:101E9000086028E0606858B9E248006820F48030A3
:101EA000E04908600846006820F4802008601AE0D5
:101EB0006068B0F5A02F0BD1DA48006840F48020AC
:101EC000D84908600846006840F4803008600AE09D
:101ED000D448006820F48030D24908600846006881
:101EE00020F48020086000BF606888B1FFF788FC9C
:101EF000054606E0FFF784FC401B642801D9032057
:101F000098E7C848006800F400300028F2D010E0DC
:101F1000FFF776FC054606E0FFF772FC401B6428DD
:101F200001D9032086E7BF48006800F4003000288C
:101F3000F2D1207800F00200022857D1B948406859
:101F400000F00C0050B1B748406800F00C000828C1
:101F500018D1B448406800F4803098B9B14800689E
:101F600000F0020020B12069012801D0012061E7C2
:101F7000AC48006820F0F800616940EAC100A94956
:101F8000086033E02069E8B10120A7490860FFF745
:101F900037FC054606E0FFF733FC401B022801D959
:101FA000032047E79F48006800F002000028F2D0B5
:101FB0009C48006820F0F800616940EAC100994936
:101FC000086013E0002098490860FFF719FC0546F7
:101FD00006E0FFF715FC401B022801D9032029E782
:101FE0009048006800F002000028F2D1207800F04C
:101FF000080008282DD1A069B8B101208B490860DC
:10200000FFF7FEFB054606E0FFF7FAFB401B022840
:1020100001D903200EE78348406A00F0020000283F
:10202000F2D0012004F046F813E000207F49086058
:10203000FFF7E6FB054606E0FFF7E2FB401B022840
:1020400001D90320F6E67748406A00F00200002834
:10205000F2D1207800F00400042873D100277148E1
:10206000C06900F0805070B900BF6E48C06940F090
:1020700080506C49C8610846C06900F080500090EB
:1020800000BF00BF01276A48006800F48070B0B943
:102090006748006840F4807065490860FFF7B0FB4E
:1020A000054606E0FFF7ACFB401B642801D903207E
:1020B000C0E65F48006800F480700028F2D000BFDE
:1020C000E068012806D15748006A40F001005549F0
:1020D000086227E0E06858B95248006A20F0010021
:1020E000504908620846006A20F00400086219E0BE
:1020F000E06805280BD14B48006A40F004004949CC
:1021000008620846006A40F0010008620AE045489B
:10211000006A20F00100434908620846006A20F086
:102120000400086200BFE068A0B1FFF769FB054644
:1021300009E0FFF765FB401B41F28831884202D974
:10214000032077E622E03748006A00F0020000280A
:10215000EFD012E0FFF754FB054608E0FFF750FB15
:10216000401B41F28831884201D9032062E62D48A4
:10217000006A00F002000028F0D1012F05D12948A3
:10218000C06920F080502749C86100BFE069C8B32A
:102190002448406800F00C00082860D0E06902285C
:1021A00048D1002020490866FFF72AFB054606E0D3
:1021B000FFF726FB401B022801D903203AE6194805
:1021C000006800F000700028F2D1206AB0F5803F6E
:1021D00007D11448406820F40030A1680843114931
:1021E0004860D4E9080108430E49496821F4741194
:1021F00008430C49486001200B490866FFF700FBC3
:10220000054607E03DE0FFF7FBFA401B022801D935
:1022100003200FE60348006800F000700028F2D0A9
:102220002FE00000001002400000424280044242C1
:1022300000700040002014490866FFF7E1FA0546E7
:1022400006E0FFF7DDFA401B022801D90320F1E583
:102250000E48006800F000700028F2D111E0E0693B
:10226000012800D1E6E50948466806F48031206A75
:10227000814204D106F47011606A814201D00120CC
:10228000D8E50020D6E500000000424200100240E0
:10229000042808D14FF0E021096941F004014FF012
:1022A000E022116107E04FF0E021096921F004010B
:1022B0004FF0E0221161704770B504462546681E54
:1022C000B0F1807F01D301200FE0681E4FF0E021C4
:1022D00048610F214FF0FF3004F0BAF900204FF0B1
:1022E000E021886107200861002070BD10B5044618
:1022F0000CB9012010BD94F83D0028B9002084F8E5
:102300003C00204600F00CF8022084F83D00211D1E
:10231000206803F061FF012084F83D000020E9E718
:10232000704701460868C06840F001000B68D8603B
:102330000868806800F00702062A05D0086800686F
:1023400040F001000B68186000207047704701469C
:102350000022002391F8392091F83A3042EA030034
:10236000704700002DE9F0470446206805682068A2
:10237000C668206847694FF00008C14605F00F089D
:10238000B8F1000F0AD105F0200038B106F02000A6
:1023900020B1204603F0C6FFBDE8F087B8F1000F7A
:1023A0006DD007F0010018B906F49070002866D0CF
:1023B00005F0010030B106F4807018B1E06B40F018
:1023C0000100E06305F0040030B107F0010018B12E
:1023D000E06B40F00200E06305F0020030B107F06E
:1023E000010018B1E06B40F00400E06305F0080064
:1023F00030B107F0010018B1E06B40F00800E06375
:10240000E06B68B305F0200028B106F0200010B1A1
:10241000204603F087FF20684069C0F38019E06B15
:1024200000F0080010B9B9F1000F22D0204603F0E7
:1024300059FF2068406900F04000B0B12068406951
:1024400020F0400021684861606B50B11748616B13
:102450004863606BFEF75AFF10B1606B416B8847B1
:102460000CE02046FFF772FF08E02046FFF76EFF02
:1024700004E02046FFF76AFF0020E0638CE705F0E8
:10248000800030B106F0800018B1204604F06EF8EC
:1024900082E705F0400030B106F0400018B1204658
:1024A00003F030FF78E700BF76E70000D162000854
:1024B00010B504460CB9012010BDA06900B100E0C0
:1024C00000BF94F8390028B9002084F8380020466D
:1024D00000F028F8242084F839002068C06820F42F
:1024E00000502168C860204603F070FF2068006932
:1024F00020F49040216808612068406920F02A009B
:10250000216848612068C06840F400502168C860B4
:102510000020E063202084F8390084F83A0000208D
:10252000CAE7000010B586B00446254920688842F5
:1025300044D100BF2348806940F0040021498861EC
:102540000846806900F00400019000BF00BF00BF92
:102550000846806940F4804088610846806900F43C
:102560008040019000BF00BF00BF0846806940F076
:10257000010088610846806900F00100019000BFF9
:1025800000BF481502900220039001200490032010
:10259000059002A90C48FEF78DFF4FF48060029071
:1025A0000020039002A90848FEF784FF2520FFF7CA
:1025B00074F9032211462520FFF77FF906B010BDFC
:1025C00000380140001002400008014010B50346E9
:1025D00093F83A0020282FD101B10AB9012010BD8B
:1025E00000BF93F83800012801D10220F7E701204D
:1025F00083F8380000BF99629A85DA850020D86395
:10260000222083F83A0000BF002083F8380000BF82
:102610001868C06840F480701C68E0601868406901
:1026200040F001001C6860611868C06840F020003C
:102630001C68E0600020D2E70220D0E71D4A016854
:10264000914236D11C49098801F4004189BB1A49DD
:10265000098801F4804171B1184909780A2903D029
:102660000021154A118024E01349098841F40041F2
:10267000114A11801DE0114909780D2906D10E4932
:10268000098841F480410C4A118012E00B49097815
:10269000094A1288C2F30D02094B99540649098868
:1026A000491C054A118011460988C72901DD00210E
:1026B00011807047003801403C0000203E0000209F
:1026C00074010020704700BFFEE7000070B50446AB
:1026D00000260E480588408845430021084603F03F
:1026E000A7F903F05DFC00BF0DE04FF480700849CE
:1026F0000861400048610748046080204861086123
:1027000080000861761CAE42EFD370BD7C020020D1
:10271000001001400C0C014010B50446494884717A
:10272000002C45D1F020474908804FF4A070488024
:102730000846808845F21051884210D14FF430503D
:10274000404908814FF4285048814FF42C5088812B
:102750004FF4F07008804FF4487048801AE0394810
:10276000808841F6631188420DD12C2035490881BB
:102770002B2048812A2088814FF4F07008804FF484
:102780004870488006E02C202E4908812A20488184
:102790002B2088812B48808845F2103188424CD10B
:1027A0004FF4A070274908804FF4F070488044E04F
:1027B0004FF4A07023490880F020488008468088A4
:1027C00045F21051884210D14FF430501D49088114
:1027D0004FF4285048814FF42C5088814FF44870B2
:1027E00008804FF4F07048801AE01648808841F65F
:1027F000631188420DD12C20124908812A2048817A
:102800002B2088814FF4487008804FF4F070488086
:1028100006E02C200B4908812A2048812B20888142
:102820000848808845F21031884206D14FF4F07094
:10283000044908804FF4A0704880002002F028FF6F
:1028400010BD00007C0200202DE9FF4F84B08146BE
:102850008A460020039002900698A0EB090507988D
:10286000A0EB0A06CDF80490CDF800A0002D01DD04
:10287000012705E00DB9002702E04FF0FF376D4258
:10288000002E02DD4FF0010806E016B94FF00008F7
:1028900002E04FF0FF387642B54201DD2C4600E001
:1028A00034464FF0000B21E0009A91B2019A90B2A9
:1028B00000F022F8039828440390029830440290D4
:1028C0000398A04205DD0398001B0390019838444B
:1028D00001900298A04205DD0298001B029000982A
:1028E000404400900BF101001FFA80FB601C8345FF
:1028F000DADD08B0BDE8F08F30B504460D46294654
:10290000204603F095F803F04BFB4FF48070074925
:102910000861400048610648008806490860802038
:102920000249486108618000086130BD0010014023
:10293000400000200C0C014030B503460C46154603
:102940009B48808845F21051884250D19849488967
:1029500003F014FB4FF48070964908614000486111
:1029600018129549086080209249486108618000EA
:1029700008618F494989491C88B203F0FFFA4FF476
:1029800080708C49086140004861D8B28A4908606B
:1029900080208849486108618000086184498889ED
:1029A00003F0ECFA4FF480708249086140004861FE
:1029B00020128149086080207E49486108618000BA
:1029C00008617B498989491C88B203F0D7FA4FF422
:1029D00080707849086140004861E0B2764908603B
:1029E000802074494861086180000861C3E0704834
:1029F000808841F6631188427DD16D48807920B985
:102A00006B480088401EC01A83B26949488903F0A8
:102A1000B5FA4FF4807067490861400048611812A8
:102A20006549086080206349486108618000086149
:102A30004010086140004861D8B25F4908608020BA
:102A40005C494861086180000861401008614000ED
:102A50004861181258490860802056494861086149
:102A6000800008614010086140004861D8B25249B6
:102A7000086080204F4948610861800008614C4926
:102A8000888903F07BFA4FF480704A49086140005E
:102A90004861201248490860802046494861086121
:102AA000800008614010086140004861E0B242497E
:102AB000086080203F49486108618000086140103B
:102AC00008614000486120123B4908608020394974
:102AD0004861086180000861401008614000486159
:102AE000E0B23549086080203249486108618000C1
:102AF000086140E0FFE72E49488903F03FFA4FF4B0
:102B000080702C4908614000486118122A49086009
:102B100080202849486108618000086140100861F0
:102B200040004861D8B224490860802021494861AA
:102B30000861800008611E49888903F01FFA4FF47C
:102B400080701C4908614000486120121A490860E1
:102B500080201849486108618000086140100861C0
:102B600040004861E0B21449086080201149486182
:102B70000861800008614FF480700E494861400090
:102B800048610B4800890C49086080200949486168
:102B900008618000086140100861400048610648F3
:102BA00005608020486108618000086130BD000038
:102BB0007C020020001001400C0C014000B585B0E3
:102BC00000BFFE48806940F00800FC498861084663
:102BD000806900F00800009000BF00BF00BF0846F9
:102BE000806940F0100088610846806900F010009C
:102BF000009000BF00BF4FF4F860019001200290E8
:102C000003900320049001A9ED48FEF753FC4FF612
:102C1000FF70019001A9EB48FEF74CFC00BFEA49A8
:102C2000486820F0E06040F08060486000BF3220DB
:102C300004F056F80121002003F0BAF9322004F024
:102C40004FF8D32003F09AF902F088FCDF4988801E
:102C500002F084FCDD49888002F080FCDB4988803A
:102C6000084680884FF6FF7101EA0020D749888026
:102C700002F074FCD54989880843D4498880084605
:102C8000808849F2413188427DD0042003F076F9F2
:102C900002F064FCCD49888002F060FCCB4988805A
:102CA00002F05CFCC9498880084680884FF6FF71B5
:102CB00001EA0020C549888002F050FCC349898898
:102CC0000843C24988800846808848F252518842A9
:102CD00003D147F28970BD498880BC48808847F29B
:102CE00089718842D0D0D42003F048F902F036FC34
:102CF000B649888002F032FCB449888002F02EFC8C
:102D0000B2498880084680884FF6FF7101EA0020AA
:102D1000AE49888002F022FCAC4989880843AB495F
:102D200088800846808845F21031884262D055215B
:102D30004FF4704003F03CF9AA214FF2010003F078
:102D400037F952214FF2020003F032F908214FF215
:102D5000030003F02DF901214FF2040003F028F9DC
:102D60004FF4454003F00AF902F0F8FB97498880D8
:102D7000084680884FF6FF7101EA00209349888059
:102D80004CF2015000E035E003F0F8F802F0E6FB09
:102D90008E49898808438D498880052003F0A0FF6B
:102DA0008A48808845F21051884223D0A12003F040
:102DB000E5F802F0D3FB8549888002F0CFFB834918
:102DC0008880084680884FF6FF7101EA00207F491D
:102DD000888002F0C3FB7D49898808437B4988804D
:102DE0000846808845F26171884203D141F663103C
:102DF000764988807548818875A0FDF739FA73484F
:102E0000808849F2413188427ED1CF2003F0B6F864
:102E1000002003F0A1F8C12003F09EF8302003F059
:102E20009BF8ED2003F0AAF8642003F095F8032046
:102E300003F092F8122003F08FF8812003F08CF851
:102E4000E82003F09BF8852003F086F8102003F0BB
:102E500083F87A2003F080F8CB2003F08FF8392034
:102E600003F07AF82C2003F077F8002003F074F8D0
:102E7000342003F071F8022003F06EF8F72003F01D
:102E80007DF8202003F068F8EA2003F077F80020AE
:102E900003F062F8002003F05FF8C02003F06EF842
:102EA0001B2003F059F8C12003F068F8012003F05B
:102EB00053F8C52003F062F8302003F04DF83020BD
:102EC00003F04AF8C72003F059F8B72003F044F89C
:102ED000362003F053F8482003F03EF83A2003F080
:102EE0004DF8552003F038F8B12003F047F80020E2
:102EF00003F032F81A2003F02FF8B62003F03EF862
:102F00000A2003F029F800E0AAE0A22003F024F848
:102F1000F22003F033F8002003F01EF8262003F01F
:102F20002DF8012003F018F8E02003F027F80F2017
:102F300003F012F82A2003F00FF8282003F00CF811
:102F4000082003F009F80E2003F006F8082003F02B
:102F500003F8542003F000F8A92002F0FDFF4320FD
:102F600002F0FAFF0A2002F0F7FF0F2002F0F4FF50
:102F7000002002F0F1FF002002F0EEFF002002F03E
:102F8000EBFF002002F0E8FFE12002F0F7FF002055
:102F900002F0E2FF152002F0DFFF172002F0DCFF55
:102FA000072002F0D9FF112002F0D6FF062002F020
:102FB000D3FF2B2002F0D0FF562011E0001002407A
:102FC00000100140000C0140000001407C02002084
:102FD000204C43442049443A25780D0A0000000063
:102FE00002F0BAFF3C2002F0B7FF052002F0B4FF68
:102FF000102002F0B1FF0F2002F0AEFF3F2002F0E0
:10300000ABFF3F2002F0A8FF0F2002F0A5FF2B200E
:1030100002F0B4FF002002F09FFF002002F09CFFAE
:10302000012002F099FF3F2002F096FF2A2002F0D3
:10303000A5FF002002F090FF002002F08DFF00208D
:1030400002F08AFFEF2002F087FF112002F096FFC6
:10305000782003F045FE292002F090FF02F05FBACD
:10306000FE48808847F2897188427CD1112002F0A5
:1030700085FF782003F034FE362002F07FFF002029
:1030800002F06AFF3A2002F079FF052002F064FFA7
:10309000B22002F073FF0C2002F05EFF0C2002F061
:1030A0005BFF002002F058FF332002F055FF332071
:1030B00002F052FFB72002F061FF352002F04CFF12
:1030C000BB2002F05BFF322002F046FFC02002F07E
:1030D00055FF0C2002F040FFC22002F04FFF0120FC
:1030E00002F03AFFC32002F049FF102002F034FF43
:1030F000C42002F043FF202002F02EFFC62002F081
:103100003DFF0F2002F028FFD02002F037FFA4205F
:1031100002F022FFA12002F01FFFE02002F02EFFAC
:10312000D02002F019FF002002F016FF022002F06A
:1031300013FF072002F010FF0A2002F00DFF2820E5
:1031400002F00AFF322002F007FF442002F004FFE1
:10315000422002F001FF062002F0FEFE0E2002F0E7
:10316000FBFE122000E056E002F0F6FE142002F012
:10317000F3FE172002F0F0FEE12002F0FFFED02067
:1031800002F0EAFE002002F0E7FE022002F0E4FE78
:10319000072002F0E1FE0A2002F0DEFE282002F005
:1031A000DBFE312002F0D8FE542002F0D5FE47208D
:1031B00002F0D2FE0E2002F0CFFE1C2002F0CCFE68
:1031C000172002F0C9FE1B2002F0C6FE1E2002F0EE
:1031D000C3FE2A2002F0D2FE002002F0BDFE002035
:1031E00002F0BAFE002002F0B7FEEF2002F0B4FEBB
:1031F0002B2002F0C3FE002002F0AEFE002002F001
:10320000ABFE012002F0A8FE3F2002F0A5FE29201F
:1032100002F0B4FE22E79148808845F210318842DE
:1032200040F07C87ED2002F0A9FE012002F094FE20
:10323000FE2002F091FEEE2002F0A0FEDE2002F061
:103240008BFE212002F088FEF12002F097FE012083
:1032500002F082FEDF2002F091FE102002F07CFEE0
:10326000C42002F08BFE8F2002F076FEC62002F012
:1032700085FE002002F070FEE22002F06DFEE220EA
:1032800002F06AFEE22002F067FEBF2002F076FE46
:10329000AA2002F061FEB02002F070FE0D2002F0C4
:1032A0005BFE002002F058FE0D2002F055FE0020CB
:1032B00002F052FE112002F04FFE002002F04CFE00
:1032C000192002F049FE002002F046FE212002F003
:1032D00043FE002002F040FE2D2002F03DFE0020C3
:1032E00002F03AFE3D2002F037FE002002F034FEEC
:1032F0005D2002F031FE002002F02EFE5D2002F083
:103300002BFE002002F028FEB12002F037FE8020C4
:1033100002F022FE002002F01FFE8B2002F01CFEB5
:10332000002002F019FE962002F016FE002002F0A6
:1033300013FEB22002F022FE002002F00DFE00205B
:1033400002F00AFE022002F007FE002002F004FE56
:10335000032002F001FE002002F0FEFDB32002F087
:103360000DFE002002F0F8FD002002F0F5FD002027
:1033700002F0F2FD002002F0EFFD002002F0ECFD73
:10338000002002F0E9FD002002F0E6FD002002F03E
:10339000E3FD002002F0E0FD002002F0DDFD002052
:1033A00002F0DAFD002002F0D7FD002002F0D4FD8B
:1033B000002002F0D1FD002002F0CEFD002002F03E
:1033C000CBFD002002F0C8FD002002F0C5FD00206A
:1033D00002F0C2FD002002F0BFFD002002F0BCFDA3
:1033E000002002F0B9FD002002F0B6FD002002F03E
:1033F000B3FDB42002F0C2FD8B2002F0ADFD002031
:1034000002F0AAFD962002F0A7FD002002F0A4FD24
:10341000A12002F0A1FD002002F09EFDB52002F0E7
:10342000ADFD022002F098FD002002F095FD032082
:1034300002F092FD002002F08FFD042002F08CFDCE
:10344000002002F089FDB62002F098FD002002F075
:1034500083FD002002F080FDB72001E07C02002007
:1034600002F08CFD002002F077FD002002F074FDD8
:103470003F2002F071FD002002F06EFD5E2002F0A0
:103480006BFD002002F068FD642002F065FD002065
:1034900002F062FD8C2002F05FFD002002F05CFD76
:1034A000AC2002F059FD002002F056FDDC2002F0B5
:1034B00053FD002002F050FD702002F04DFD002071
:1034C00002F04AFD902002F047FD002002F044FD8A
:1034D000EB2002F041FD002002F03EFDDC2002F076
:1034E0003BFD002002F038FDB82002F047FD00202F
:1034F00002F032FD002002F02FFD002002F02CFD32
:10350000002002F029FD002002F026FD002002F03C
:1035100023FD002002F020FD002002F01DFDBA2056
:1035200002F02CFD242002F017FD002002F014FD13
:10353000002002F011FD002002F00EFDC12002F07B
:103540001DFD202002F008FD002002F005FD5420A2
:1035500002F002FD002002F0FFFCFF2002F0FCFC64
:10356000002002F0F9FCC22002F008FD0A2002F05F
:10357000F3FC002002F0F0FC042002F0EDFC00203F
:1035800002F0EAFCC32002F0F9FC3C2002F0E4FC6B
:10359000002002F0E1FC3A2002F0DEFC002002F004
:1035A000DBFC392002F0D8FC002002F0D5FC3720EB
:1035B00002F0D2FC002002F0CFFC3C2002F0CCFC58
:1035C000002002F0C9FC362002F0C6FC002002F008
:1035D000C3FC322002F0C0FC002002F0BDFC2F2012
:1035E00002F0BAFC002002F0B7FC2C2002F0B4FC80
:1035F000002002F0B1FC292002F0AEFC002002F015
:10360000ABFC262002F0A8FC002002F0A5FC242040
:1036100002F0A2FC002002F09FFC242002F09CFC9F
:10362000002002F099FC232002F096FC002002F01A
:1036300093FC3C2002F090FC002002F08DFC362030
:1036400002F08AFC002002F087FC322002F084FCA9
:10365000002002F081FC2F2002F07EFC002002F00E
:103660007BFC2C2002F078FC002002F075FC292065
:1036700002F072FC002002F06FFC262002F06CFCCD
:10368000002002F069FC242002F066FC002002F019
:1036900063FC242002F060FC002002F05DFC23208B
:1036A00002F05AFC002002F057FCC42002F066FC35
:1036B000622002F051FC002002F04EFC052002F0D6
:1036C0004BFC002002F048FC842002F045FC002066
:1036D00002F042FCF02002F03FFC002002F03CFC33
:1036E000182002F039FC002002F036FCA42002F081
:1036F00033FC002002F030FC182002F02DFC0020EA
:1037000002F02AFC502002F027FC002002F024FCEA
:103710000C2002F021FC002002F01EFC172002F019
:103720001BFC002002F018FC952002F015FC002084
:1037300002F012FCF32002F00FFC002002F00CFC5F
:10374000E62002F009FC002002F006FCC52002F091
:1037500015FC322002F000FC002002F0FDFB4420AA
:1037600002F0FAFB002002F0F7FB652002F0F4FB08
:10377000002002F0F1FB762002F0EEFB002002F0C8
:10378000EBFB882002F0E8FB002002F0E5FBC620FE
:1037900002F0F4FB202002F0DFFB002002F0DCFB53
:1037A000172002F0D9FB002002F0D6FB012002F026
:1037B000D3FB002002F0D0FBC72002F0DFFB00208B
:1037C00002F0CAFB002002F0C7FB002002F0C4FB9D
:1037D000002002F0C1FBC82002F0D0FB002002F064
:1037E000BBFB002002F0B8FB002002F0B5FB00207C
:1037F00002F0B2FBC92002F0C1FB002002F0ACFBDA
:10380000002002F0A9FB002002F0A6FB002002F03D
:10381000A3FB002002F0A0FB002002F09DFB002093
:1038200002F09AFB002002F097FB002002F094FBCC
:10383000002002F091FB002002F08EFB002002F03D
:103840008BFB002002F088FB002002F085FB0020AB
:1038500002F082FB002002F07FFBE02002F08EFBF2
:10386000162002F079FB002002F076FB1C2002F00B
:1038700073FB002002F070FB212002F06DFB0020A2
:1038800002F06AFB362002F067FB002002F064FBC6
:10389000462002F061FB002002F05EFB522002F0A5
:1038A0005BFB002002F058FB642002F055FB002077
:1038B00002F052FB7A2002F04FFB002002F04CFB9A
:1038C0008B2002F049FB002002F046FB992002F019
:1038D00043FB002002F040FBA82002F03DFB00204B
:1038E00002F03AFBB92002F037FB002002F034FB73
:1038F000C42002F031FB002002F02EFBCA2002F0AF
:103900002BFB002002F028FBD22002F025FB002038
:1039100002F022FBD92002F01FFB002002F01CFB6A
:10392000E02002F019FB002002F016FBF32002F069
:1039300013FB002002F010FBE12002F01FFB162019
:1039400002F00AFB002002F007FB1C2002F004FB3F
:10395000002002F001FB222002F0FEFA002002F01B
:10396000FBFA362002F0F8FA002002F0F5FA4520C2
:1039700002F0F2FA002002F0EFFA522002F0ECFA24
:10398000002002F0E9FA642002F0E6FA002002F0DA
:10399000E3FA7A2002F0E0FA002002F0DDFA8B2050
:1039A00002F0DAFA002002F0D7FA992002F0D4FAF5
:1039B000002002F0D1FAA82002F0CEFA002002F096
:1039C000CBFAB92002F0C8FA002002F0C5FAC420F0
:1039D00002F0C2FA002002F0BFFACA2002F0BCFADC
:1039E000002002F0B9FAD22002F0B6FA002002F06C
:1039F000B3FAD82002F0B0FA002002F0ADFAE020CD
:103A000002F0AAFA002002F0A7FAF32002F0A4FACA
:103A1000002002F0A1FAE22002F0B0FA052002F044
:103A20009BFA002002F098FA0B2002F095FA002091
:103A300002F092FA1B2002F08FFA002002F08CFABA
:103A4000342002F089FA002002F086FA442002F0C5
:103A500083FA002002F080FA4F2002F07DFA002065
:103A600002F07AFA612002F077FA002002F074FA8C
:103A7000792002F071FA002002F06EFA882002F03C
:103A80006BFA002002F068FA972002F065FA002035
:103A900002F062FAA62002F05FFA002002F05CFA5F
:103AA000B72002F059FA002002F056FAC22002F0C4
:103AB00053FA002002F050FAC72002F04DFA00201D
:103AC00002F04AFAD12002F047FA002002F044FA4C
:103AD000D62002F041FA002002F03EFADD2002F08A
:103AE0003BFA002002F038FAF32002F035FA002009
:103AF00002F032FAE32002F041FA052002F02CFA3B
:103B0000002002F029FA0A2002F026FA002002F032
:103B100023FA1C2002F020FA002002F01DFA3320C4
:103B200002F01AFA002002F017FA442002F014FA08
:103B3000002002F011FA502002F00EFA002002F0EC
:103B40000BFA622002F008FA002002F005FA782051
:103B500002F002FA002002F0FFF9882002F0FCF9DE
:103B6000002002F0F9F9972002F0F6F9002002F0A7
:103B7000F3F9A62002F0F0F9002002F0EDF9B720E9
:103B800002F0EAF9002002F0E7F9C22002F0E4F9BD
:103B9000002002F0E1F9C72002F0DEF9002002F077
:103BA000DBF9D12002F0D8F9002002F0D5F9D520B8
:103BB00002F0D2F9002002F0CFF9DD2002F0CCF9BA
:103BC000002002F0C9F9F32002F0C6F9002002F04B
:103BD000C3F9E42002F0D2F9012002F0BDF900207F
:103BE00002F0BAF9012002F0B7F9002002F0B4F9AE
:103BF000022002F0B1F9002002F0AEF92A2002F012
:103C0000ABF9002002F0A8F93C2002F0A5F9002051
:103C100002F0A2F94B2002F09FF9002002F09CF97B
:103C20005D2002F099F9002002F096F9742002F06C
:103C300093F9002002F090F9842002F08DF9002021
:103C400002F08AF9932002F087F9002002F084F94B
:103C5000A22002F081F9002002F07EF9B32002F0E8
:103C60007BF9002002F078F9BE2002F075F90020FF
:103C700002F072F9C42002F06FF9002002F06CF932
:103C8000CD2002F069F9002002F066F9D32002F09D
:103C900063F9002002F060F9DD2002F05DF90020F8
:103CA00002F05AF9F32002F057F9002002F054F91B
:103CB000E52002F063F9002002F04EF9002002F046
:103CC0004BF9002002F048F9002002F045F90220EB
:103CD00002F042F9002002F03FF9292002F03CF9FD
:103CE000002002F039F93C2002F036F9002002F001
:103CF00033F94B2002F030F9002002F02DF95D205D
:103D000002F02AF9002002F027F9742002F024F9C9
:103D1000002002F021F9842002F01EF9002002F0B8
:103D20001BF9932002F018F9002002F015F9A220E7
:103D300002F012F9002002F00FF9B32002F00CF9A2
:103D4000002002F009F9BE2002F006F9002002F07E
:103D500003F9C42002F000F9002002F0FDF8CD20A4
:103D600002F0FAF8002002F0F7F8D32002F0F4F89D
:103D7000002002F0F1F8DC2002F0EEF8002002F062
:103D8000EBF8F32002F0E8F8002002F0E5F8E62076
:103D900002F0F4F8112002F0DFF8002002F0DCF865
:103DA000342002F0D9F8002002F0D6F8562002F0B4
:103DB000D3F8002002F0D0F8762002F0CDF80020F1
:103DC00002F0CAF8772002F0C7F8002002F0C4F829
:103DD000662002F0C1F8002002F0BEF8882002F050
:103DE000BBF8002002F0B8F8992002F0B5F80020E6
:103DF00002F0B2F8BB2002F0AFF8002002F0ACF8FD
:103E0000992002F0A9F8002002F0A6F8662002F03E
:103E1000A3F8002002F0A0F8552002F09DF8002041
:103E200002F09AF8552002F097F8002002F094F87A
:103E3000452002F091F8002002F08EF8432002F0B5
:103E40008BF8002002F088F8442002F085F800206A
:103E500002F082F8E72002F091F8322002F07CF8BC
:103E6000002002F079F8552002F076F8002002F0E8
:103E700073F8762002F070F8002002F06DF86620EA
:103E800002F06AF8002002F067F8672002F064F898
:103E9000002002F061F8672002F05EF8002002F0D6
:103EA0005BF8872002F058F8002002F055F89920BE
:103EB00002F052F8002002F04FF8BB2002F04CF85C
:103EC000002002F049F8992002F046F8002002F0A4
:103ED00043F8772002F040F8002002F03DF844203B
:103EE00002F03AF8002002F037F8562002F034F8D9
:103EF000002002F031F8232002F02EF8002002F01A
:103F00002BF8332002F028F8002002F025F8452095
:103F100002F022F8002002F01FF8E82002F02EF84C
:103F2000002002F019F8002002F016F8992002F0A3
:103F300013F8002002F010F8872002F00DF800209E
:103F400002F00AF8882002F007F8002002F004F8D6
:103F5000772002F001F8002001F0FEFF662001F05A
:103F6000FBFF002001F0F8FF882001F0F5FF0020A2
:103F700001F0F2FFAA2001F0EFFF002001F0ECFFBA
:103F8000BB2001F0E9FF002001F0E6FF992001F0DD
:103F9000E3FF002001F0E0FF662001F0DDFF0020DC
:103FA00001F0DAFF552001F0D7FF002001F0D4FF27
:103FB000552001F0D1FF002001F0CEFF442001F098
:103FC000CBFF002001F0C8FF442001F0C5FF002016
:103FD00001F0C2FF552001F0BFFF002001F0BCFF3F
:103FE000E92001F0CBFFAA2001F0B6FF002001F08C
:103FF000B3FF002001F0B0FF002001F0ADFF002072
:1040000001F0BCFFAA2001F0A7FFCF2001F0B6FF0E
:10401000002001F0A1FF002001F09EFF002001F030
:104020009BFF002001F098FF002001F095FF002089
:1040300001F092FF002001F08FFF002001F08CFFC3
:10404000002001F089FF002001F086FF002001F030
:1040500083FF002001F080FF002001F07DFF0020A1
:1040600001F07AFF002001F077FF002001F074FFDB
:10407000002001F071FFF02001F080FF002001F02E
:104080006BFF502001F068FF002001F065FF002069
:1040900001F062FF002001F05FFFF32001F06EFFEE
:1040A000002001F059FFF92001F068FF062001F01F
:1040B00053FF102001F050FF292001F04DFF002098
:1040C00001F04AFF3A2001F059FF552001F044FF6A
:1040D000112001F053FF642002F002FE292001F0BC
:1040E0004DFF352001F04AFF002001F035FF51203F
:1040F00001F044FFFF2001F02FFF532001F03EFFAD
:104100002C2001F029FF552001F038FF822001F01A
:1041100023FF2C2001F032FF01F001BAFE48808815
:1041200045F2105188427DD155214FF4704001F085
:104130003FFFAA214FF2010001F03AFF52214FF256
:10414000020001F035FF08214FF2030001F030FFBB
:1041500001214FF2040001F02BFF0D214FF43040FC
:1041600001F026FF0D214BF2010001F021FF0D218E
:104170004BF2020001F01CFF34214FF4364001F0F5
:1041800017FF34214BF2016001F012FF34214BF292
:10419000026001F00DFF0D214FF4314001F008FFE6
:1041A0000D214BF2011001F003FF0D214BF2021023
:1041B00001F0FEFE34214FF4374001F0F9FE3421C6
:1041C0004BF2017001F0F4FE34214BF2027001F069
:1041D000EFFE00214FF4324001F0EAFE00214BF2E5
:1041E000012001F0E5FE00214BF2022001F0E0FE8B
:1041F00024214FF4384001F0DBFE24214BF601006E
:1042000001F0D6FE24214BF6020001F0D1FE01217F
:104210004FF43F4001F0CCFE0F214FF4334001F04A
:10422000C7FE00E0FDE30F214BF2013001F0C0FEBC
:104230000F214BF2023001F0BBFE34214FF4394024
:1042400001F0B6FE34214BF6011001F0B1FE34212D
:104250004BF6021001F0ACFE08214FF4354001F09E
:10426000A7FE08214BF2015001F0A2FE08214BF2FB
:10427000025001F09DFE03214FF4424001F098FEF0
:1042800024214FF43A4001F093FE24214BF6012003
:1042900001F08EFE24214BF6022001F089FE002160
:1042A0004FF43C4001F084FE78214BF6014001F0D0
:1042B0007FFE00214BF6024001F07AFE00214FF410
:1042C0003D4001F075FE78214BF6015001F070FE83
:1042D00000214BF6025001F06BFE00214FF43E40EE
:1042E00001F066FE64214BF6016001F061FE0021E1
:1042F0004FF4514001F05CFE33214DF2011001F00A
:1043000057FE00214DF2021001F052FE34214DF211
:10431000031001F04DFE00214DF2041001F048FEA3
:104320003A214DF2051001F043FE00214DF2061036
:1043300001F03EFE4A214DF2071001F039FE002146
:104340004DF2081001F034FE5C214DF2091001F02D
:104350002FFE00214DF20A1001F02AFE81214DF2BC
:104360000B1001F025FE00214DF20C1001F020FE93
:10437000A6214DF20D1001F01BFE00214DF20E1092
:1043800001F016FEE5214DF20F1001F011FE0121A2
:104390004DF2101001F00CFE13214DF2111001F03E
:1043A00007FE01214DF2121001F002FE54214DF2E0
:1043B000131001F0FDFD01214DF2141001F0F8FD84
:1043C00082214DF2151001F0F3FD01214DF216107E
:1043D00001F0EEFDCA214DF2171001F0E9FD0221B6
:1043E0004DF2181001F0E4FD00214DF2191001F01A
:1043F000DFFD02214DF21A1001F0DAFD01214DF22C
:104400001B1001F0D5FD02214DF21C1001F0D0FD72
:1044100034214DF21D1001F0CBFD02214DF21E1092
:1044200001F0C6FD67214DF21F1001F0C1FD022110
:104430004DF2201001F0BCFD84214DF2211001F05D
:10444000B7FD02214DF2221001F0B2FDA4214DF280
:10445000231001F0ADFD02214DF2241001F0A8FD62
:10446000B7214DF2251001F0A3FD02214DF22610D7
:1044700001F09EFDCF214DF2271001F099FD0221A0
:104480004DF2281001F094FDDE214DF2291001F0CB
:104490008FFD02214DF22A1001F08AFDF2214DF22A
:1044A0002B1001F085FD02214DF22C1001F080FD52
:1044B000FE214DF22D1001F07BFD03214DF22E1057
:1044C00001F076FD10214DF22F1001F071FD032156
:1044D0004DF2301001F06CFD33214DF2311001F03E
:1044E00067FD03214DF2321001F062FD6D214DF2A6
:1044F000331001F05DFD00214FF4524001F058FDF2
:1045000033214DF2012001F053FD00214DF2022034
:1045100001F04EFD342101E07C0200204DF2032029
:1045200001F046FD00214DF2042001F041FD3A2149
:104530004DF2052001F03CFD00214DF2062001F076
:1045400037FD4A214DF2072001F032FD00214DF2E6
:10455000082001F02DFD5C214DF2092001F028FD1D
:1045600000214DF20A2001F023FD81214DF20B20A4
:1045700001F01EFD00214DF20C2001F019FDA621D5
:104580004DF20D2001F014FD00214DF20E2001F03E
:104590000FFDE5214DF20F2001F00AFD01214DF242
:1045A000102001F005FD13214DF2112001F000FD56
:1045B00001214DF2122001F0FBFC54214DF2132099
:1045C00001F0F6FC01214DF2142001F0F1FC8221F2
:1045D0004DF2152001F0ECFC01214DF2162001F006
:1045E000E7FCCA214DF2172001F0E2FC02214DF256
:1045F000182001F0DDFC00214DF2192001F0D8FC5B
:1046000002214DF21A2001F0D3FC01214DF21B20B2
:1046100001F0CEFC02214DF21C2001F0C9FC342136
:104620004DF21D2001F0C4FC02214DF21E2001F0CC
:10463000BFFC67214DF21F2001F0BAFC02214DF2B0
:10464000202001F0B5FC84214DF2212001F0B0FCC6
:1046500002214DF2222001F0ABFCA4214DF22320D7
:1046600001F0A6FC02214DF2242001F0A1FCB721AB
:104670004DF2252001F09CFC02214DF2262001F094
:1046800097FCCF214DF2272001F092FC02214DF240
:10469000282001F08DFCDE214DF2292001F088FC5C
:1046A00002214DF22A2001F083FCF2214DF22B2051
:1046B00001F07EFC02214DF22C2001F079FCFE215C
:1046C0004DF22D2001F074FC03214DF22E2001F05B
:1046D0006FFC10214DF22F2001F06AFC03214DF2F6
:1046E000302001F065FC33214DF2312001F060FCF7
:1046F00003214DF2322001F05BFC6D214DF233209D
:1047000001F056FC00214FF4534001F051FC3321DD
:104710004DF2013001F04CFC00214DF2023001F06D
:1047200047FC34214DF2033001F042FC00214DF2F0
:10473000043001F03DFC3A214DF2053001F038FC27
:1047400000214DF2063001F033FC4A214DF20730D2
:1047500001F02EFC00214DF2083001F029FC5C2113
:104760004DF2093001F024FC00214DF20A3001F035
:104770001FFC81214DF20B3001F01AFC00214DF29B
:104780000C3001F015FCA6214DF20D3001F010FCAB
:1047900000214DF20E3001F00BFCE5214DF20F30FF
:1047A00001F006FC01214DF2103001F001FC132153
:1047B0004DF2113001F0FCFB01214DF2123001F0FD
:1047C000F7FB54214DF2133001F0F2FB01214DF2C1
:1047D000143001F0EDFB82214DF2153001F0E8FBC1
:1047E00001214DF2163001F0E3FBCA214DF21730E2
:1047F00001F0DEFB02214DF2183001F0D9FB00215F
:104800004DF2193001F0D4FB02214DF21A3001F0C3
:10481000CFFB01214DF21B3001F0CAFB02214DF20A
:104820001C3001F0C5FB34214DF21D3001F0C0FBFE
:1048300002214DF21E3001F0BBFB67214DF21F300B
:1048400001F0B6FB02214DF2203001F0B1FB8421D2
:104850004DF2213001F0ACFB02214DF2223001F08B
:10486000A7FBA4214DF2233001F0A2FB02214DF25F
:10487000243001F09DFBB7214DF2253001F098FB6B
:1048800002214DF2263001F093FBCF214DF227306B
:1048900001F08EFB02214DF2283001F089FBDE2170
:1048A0004DF2293001F084FB02214DF22A3001F053
:1048B0007FFBF2214DF22B3001F07AFB02214DF209
:1048C0002C3001F075FBFE214DF22D3001F070FB14
:1048D00003214DF22E3001F06BFB10214DF22F30F1
:1048E00001F066FB03214DF2303001F061FB332112
:1048F0004DF2313001F05CFB03214DF2323001F01A
:1049000057FB6D214DF2333001F052FB00214FF483
:10491000544001F04DFB33214DF2014001F048FBC2
:1049200000214DF2024001F043FB34214DF20340DF
:1049300001F03EFB00214DF2044001F039FB3A2129
:104940004DF2054001F034FB00214DF2064001F02C
:104950002FFB4A214DF2074001F02AFB00214DF2C6
:10496000084001F025FB5C214DF2094001F020FBDD
:1049700000214DF20A4001F01BFB81214DF20B405A
:1049800001F016FB00214DF20C4001F011FBA621B5
:104990004DF20D4001F00CFB00214DF20E4001F0F4
:1049A00007FBE5214DF20F4001F002FB01214DF222
:1049B000104001F0FDFA13214DF2114001F0F8FA18
:1049C00001214DF2124001F0F3FA54214DF213404F
:1049D00001F0EEFA01214DF2144001F0E9FA8221D2
:1049E0004DF2154001F0E4FA01214DF2164001F0BC
:1049F000DFFACA214DF2174001F0DAFA02214DF236
:104A0000184001F0D5FA00214DF2194001F0D0FA1A
:104A100002214DF21A4001F0CBFA01214DF21B4068
:104A200000E005E301F0C4FA02214DF21C4001F060
:104A3000BFFA34214DF21D4001F0BAFA02214DF2C5
:104A40001E4001F0B5FA67214DF21F4001F0B0FAA7
:104A500002214DF2204001F0ABFA84214DF22140B9
:104A600001F0A6FA02214DF2224001F0A1FAA421A0
:104A70004DF2234001F09CFA02214DF2244001F056
:104A800097FAB7214DF2254001F092FA02214DF23A
:104A9000264001F08DFACF214DF2274001F088FA2F
:104AA00002214DF2284001F083FADE214DF2294027
:104AB00001F07EFA02214DF22A4001F079FAF2214A
:104AC0004DF22B4001F074FA02214DF22C4001F01E
:104AD0006FFAFE214DF22D4001F06AFA03214DF2EA
:104AE0002E4001F065FA10214DF22F4001F060FADE
:104AF00003214DF2304001F05BFA33214DF2314099
:104B000001F056FA03214DF2324001F051FA6D21C5
:104B10004DF2334001F04CFA00214FF4554001F0C2
:104B200047FA33214DF2015001F042FA00214DF2D3
:104B3000025001F03DFA34214DF2035001F038FAF1
:104B400000214DF2045001F033FA3A214DF20550A4
:104B500001F02EFA00214DF2065001F029FA4A2107
:104B60004DF2075001F024FA00214DF2085001F0F7
:104B70001FFA5C214DF2095001F01AFA00214DF2A2
:104B80000A5001F015FA81214DF20B5001F010FA94
:104B900000214DF20C5001F00BFAA6214DF20D5000
:104BA00001F006FA00214DF20E5001F001FAE52164
:104BB0004DF20F5001F0FCF901214DF2105001F0BF
:104BC000F7F913214DF2115001F0F2F901214DF2E4
:104BD000125001F0EDF954214DF2135001F0E8F9B3
:104BE00001214DF2145001F0E3F982214DF21550EC
:104BF00001F0DEF901214DF2165001F0D9F9CA2178
:104C00004DF2175001F0D4F902214DF2185001F085
:104C1000CFF900214DF2195001F0CAF902214DF2ED
:104C20001A5001F0C5F901214DF21B5001F0C0F9F5
:104C300002214DF21C5001F0BBF934214DF21D5000
:104C400001F0B6F902214DF21E5001F0B1F96721D1
:104C50004DF21F5001F0ACF902214DF2205001F04D
:104C6000A7F984214DF2215001F0A2F902214DF261
:104C7000225001F09DF9A4214DF2235001F098F942
:104C800002214DF2245001F093F9B7214DF2255045
:104C900001F08EF902214DF2265001F089F9CF2161
:104CA0004DF2275001F084F902214DF2285001F015
:104CB0007FF9DE214DF2295001F07AF902214DF2FF
:104CC0002A5001F075F9F2214DF22B5001F070F9E4
:104CD00002214DF22C5001F06BF9FE214DF22D50C6
:104CE00001F066F903214DF22E5001F061F9102117
:104CF0004DF22F5001F05CF903214DF2305001F0DC
:104D000057F933214DF2315001F052F903214DF2A0
:104D1000325001F04DF96D214DF2335001F048F958
:104D200000214FF4564001F043F933214DF2016068
:104D300001F03EF900214DF2026001F039F9342111
:104D40004DF2036001F034F900214DF2046001F0EE
:104D50002FF93A214DF2056001F02AF900214DF2B8
:104D6000066001F025F94A214DF2076001F020F9B3
:104D700000214DF2086001F01BF95C214DF2096041
:104D800001F016F900214DF20A6001F011F98121BC
:104D90004DF20B6001F00CF900214DF20C6001F0B6
:104DA00007F9A6214DF20D6001F002F900214DF244
:104DB0000E6001F0FDF8E5214DF20F6001F0F8F80A
:104DC00001214DF2106001F0F3F813214DF2116052
:104DD00001F0EEF801214DF2126001F0E9F85421E2
:104DE0004DF2136001F0E4F801214DF2146001F07E
:104DF000DFF882214DF2156001F0DAF801214DF261
:104E0000166001F0D5F8CA214DF2176001F0D0F814
:104E100002214DF2186001F0CBF800214DF219602B
:104E200001F0C6F802214DF21A6001F0C1F801212B
:104E30004DF21B6001F0BCF802214DF21C6001F044
:104E4000B7F834214DF21D6001F0B2F802214DF2A5
:104E50001E6001F0ADF867214DF21F6001F0A8F867
:104E600002214DF2206001F0A3F884214DF221606F
:104E700001F09EF802214DF2226001F099F8A42180
:104E80004DF2236001F094F802214DF2246001F00C
:104E90008FF8B7214DF2256001F08AF802214DF21A
:104EA000266001F085F8CF214DF2276001F080F8EF
:104EB00002214DF2286001F07BF8DE214DF22960DD
:104EC00001F076F802214DF22A6001F071F8F2212A
:104ED0004DF22B6001F06CF802214DF22C6001F0D4
:104EE00067F8FE214DF22D6001F062F803214DF2CA
:104EF0002E6001F05DF810214DF22F6001F058F89E
:104F000003214DF2306001F053F833214DF231604E
:104F100001F04EF803214DF2326001F049F86D21A5
:104F20004DF2336001F044F855214FF4704001F028
:104F30003FF8AA214FF2010001F03AF852214FF256
:104F4000020001F035F808214FF2030001F030F8BB
:104F500000214FF2040001F02BF8CC214FF4314036
:104F600001F026F800214BF2011001F021F8052193
:104F70004FF4364001F01CF870214FF4374001F037
:104F800017F870214BF2017001F012F801214FF473
:104F9000384001F00DF803214BF6010001F008F84C
:104FA00003214BF6020001F003F803214BF6030046
:104FB00000F0FEFF02214FF43C4000F0F9FF002119
:104FC0004BF6014000F0F4FF00214BF6024000F0E8
:104FD000EFFFD0214FF4494000F0EAFF02214CF6E8
:104FE000011000F0E5FF50214CF6021000F0E0FF48
:104FF00050214CF6031000F0DBFF50214CF604105A
:1050000000F0D6FF00214FF4545000F0D1FF55219D
:105010004FF4685000F0CCFF4FF4885000F0AEFF22
:10502000782001F069FE4FF4245000F0A7FF76E2EB
:10503000FE48808841F663118842F8D1E22000F0F2
:105040009DFF4FF48070FA490861400048611D20BF
:10505000F84908608020F6494861086180000861CD
:1050600040100861400048610220F2490860802039
:10507000EF49486108618000086140100861400004
:1050800048610420EB4908608020E94948610861D3
:1050900080000861642001F02FFEE02000F06EFF28
:1050A0004FF48070E2490861400048610120E14905
:1050B00008608020DE4948610861800008610A209C
:1050C00001F00EFEE02000F059FF4FF48070D84947
:1050D0000861400048610320D64908608020D44917
:1050E00048610861800008610C2001F0F9FD012091
:1050F00000F044FF0A2001F0F3FDE62000F03EFF3F
:105100004FF48070CA490861400048612F20C949A6
:1051100008608020C649486108618000086140102D
:10512000086140004861FF20C24908608020C049F2
:1051300048610861800008614010086140004861D2
:10514000FF20BC4908608020B9494861086180009F
:105150000861B02000F012FF4FF48070B44908617C
:10516000400048612020B34908608020B049486170
:10517000086180000861401008614000486100201B
:10518000AC4908608020AA49486108618000086134
:1051900040100861400048610320A6490860802053
:1051A000A34948610861800008614010086140001F
:1051B000486140F21F309F49086080209C49486147
:1051C00008618000086140100861400048610120CA
:1051D000984908608020964948610861800008610C
:1051E000401008614000486140F2DF1091490860BA
:1051F00080208F4948610861800008614010086183
:105200004000486100208B4908608020884948613F
:10521000086180000861B42000F0B0FE4FF4807097
:105220008349086140004861042082490860802069
:105230007F494861086180000861401008614000B2
:10524000486140F21F407B490860802078494861EE
:10525000086180000861401008614000486100203A
:1052600074490860802072494861086180000861C3
:1052700040100861400048612E206E49086080207F
:105280006B49486108618000086140100861400076
:1052900048610020674908608020654948610861CD
:1052A00080000861401008614000486100206149A9
:1052B000086080205E4948610861800008614010F4
:1052C00008614000486100205A4908608020584920
:1052D0004861086180000861401008614000486131
:1052E00000205449086080205149486108618000CD
:1052F0000861B62000F042FE4FF480704C4908610E
:105300004000486102204B490860802048494861BC
:1053100008618000086140100861400048614FF456
:105320000370444908608020414948610861800059
:105330000861401008614000486100203D49086054
:1053400080203B4948610861800008614010086185
:10535000400048611720374908608020344948617F
:105360000861800008614010086140004861152014
:105370003049086080202E4948610861800008613A
:10538000401008614000486100202A4908608020E0
:1053900027494861086180000861401008614000A9
:1053A0004861002023490860802021494861086144
:1053B00080000861F02000F0E1FD4FF480701C498E
:1053C00008614000486103201A490860802018499C
:1053D0004861086180000861292000F0CFFDD020DD
:1053E00000F0CCFD4FF48070114908614000486125
:1053F00000201049086080200D4948610861800044
:105400000861BE2000F0BAFD4FF4807008490861C1
:105410004000486105200749086080200449486130
:105420000861800008614010086105E07C020020EE
:10543000001001400C0C014040004861FE203E4934
:10544000086080203D494861086180000861401083
:1054500008614000486101203749086080203749D1
:10546000486108618000086140100861400048619F
:10547000002031490860802030494861086180007F
:105480000861401008614000486100202A49086016
:1054900080202A4948610861800008614010086145
:1054A0004000486100202449086080202349486169
:1054B000086180000861B82000F060FD4FF4807042
:1054C0001E4908614000486103201B490860802094
:1054D0001A49486108618000086140100861400075
:1054E000486101201449086080201449486108611E
:1054F00080000861BA2000F041FD4FF480700F4930
:1055000008614000486101200B49086080200B4978
:105510004861086180000861642000F04FF80020B5
:10552000FDF7FAF80120064908604FF6FF70FDF715
:10553000CDF805B000BD00000C0C0140001001408A
:10554000A801224210B50246012000E050430B00A2
:10555000A1F10104E1B2F9D110BD000000B54FF096
:10556000883014490860091D0860002011490C3179
:105570000860881510490861400048614020486172
:10558000022001F069FD0B480830006883B240201A
:1055900009490861C00008614FF0333005490860CF
:1055A000091D08604FF6FF7002490C31086018466B
:1055B00000BD0000000C0140001001402DE9F04149
:1055C0000446BE2000F0DAFC4FF480702D490861DB
:1055D0004000486105202C49086080202949486125
:1055E0000861800008614010086140004861204661
:1055F00003F00CF905464FF06632244B03F056F9E0
:10560000074603F0BFF82049086080201D49486123
:105610000861800008614010086140004861012075
:1056200019490860802017494861086180000861B5
:105630004010086140004861FF2013490860802045
:10564000104948610861800008614010086140000D
:10565000486100200C49086080200A4948610861BF
:105660008000086140100861400048610020064940
:105670000860802003494861086180000861BDE836
:10568000F0810000001001400C0C014066660440EF
:10569000F0B5054600240027E2488079012805D1AD
:1056A000E048808841F66311884208D1DD4880795E
:1056B000F0B9DC48808841F66311884218D1082D82
:1056C00015D2DFE805F00406080A0C0E10120625B4
:1056D0000DE007250BE0042509E0052507E001257D
:1056E00005E0002503E0032501E0022500BF00BF1F
:1056F000082D1CD2DFE805F00406090C0F1215185E
:1057000000BF14E044F0800411E044F040040EE0D7
:1057100044F0C0040BE044F0200408E044F06004CE
:1057200005E044F0A00402E044F0E00400BF00BF44
:10573000BC48808845F21051884202D14FF4585736
:1057400000E03627B748808849F24131884205D0C9
:10575000B448808847F28971884201D144F0080436
:105760002146384600F024FCAE48808841F663119B
:1057700088421DD004F0200068B1AA480088A949D9
:105780004988884214DAA74806884088A5490880D5
:10579000084646800CE0A3480088A2494988884210
:1057A00006DDA048068840889E4908800846468055
:1057B0009C48808845F2105188427DD1994948899A
:1057C00000F0DCFB4FF480709749086140004861AD
:1057D0000020964908608020934948610861800054
:1057E000086190494989491C88B200F0C7FB4FF411
:1057F00080708D4908614000486100208B49086035
:10580000802089494861086180000861854949898B
:10581000891C88B200F0B2FB4FF4807082490861A5
:10582000400048617F480088401E00127F490860A0
:1058300080207D4948610861800008617949498973
:10584000C91C88B200F09AFB4FF480707649086159
:105850004000486173480078401EC0B27349086038
:105860008020714948610861800008616D4988891C
:1058700000F084FB4FF480706B4908614000486180
:1058800000206A49086080206749486108618000FB
:10589000086164498989491C88B200F06FFB4FF4A4
:1058A0008070614908614000486100205F490860DC
:1058B00080205D49486100E033E0086180000861B4
:1058C00058498989891C88B200F058FB4FF48070D0
:1058D000554908614000486152484088401E001206
:1058E0005249086080205049486108618000086181
:1058F0004C498989C91C88B200F040FB4FF4807084
:10590000494908614000486146488078401EC0B25D
:105910004649086080204449486108618000086168
:105920007FE04049488900F029FB4FF480703E49F0
:1059300008614000486100203C49086080203A49E5
:1059400048610861800008614010086140004861BA
:105950000020364908608020334948610861800092
:10596000086140100861400048612E480088401ED0
:1059700000122E49086080202B4948610861800090
:105980000861401008614000486126480078401EC8
:10599000C0B2264908608020234948610861800020
:1059A00008612049888900F0E9FA4FF480701E49A7
:1059B00008614000486100201C49086080201A49A5
:1059C000486108618000086140100861400048613A
:1059D0000020164908608020134948610861800052
:1059E000086140100861400048610E484088401E30
:1059F00000120E49086080200B4948610861800050
:105A00000861401008614000486106488078401EE7
:105A1000C0B20649086080200349486108618000DF
:105A20000861F0BD7C020020001001400C0C014018
:105A300010B503460C46B248808841F6631188428F
:105A40007ED1AF48807900283FD1AD480088401E04
:105A5000C01A83B2AA49488900F090FA4FF48070C6
:105A6000A8490861400048610020A74908608020DB
:105A7000A449486108618000086140100861400045
:105A800048610020A049086080209E494861086163
:105A900080000861401008614000486118129A496E
:105AA00008608020974948610861800008614010C3
:105AB000086140004861D8B293490860802091494C
:105AC000486108618000086141E08D49488900F023
:105AD00055FA4FF480708B490861400048611812F4
